{
  "contractName": "Ticket",
  "abi": [
    {
      "constant": true,
      "inputs": [
        {
          "internalType": "uint256",
          "name": "",
          "type": "uint256"
        }
      ],
      "name": "buyers",
      "outputs": [
        {
          "internalType": "address",
          "name": "",
          "type": "address"
        }
      ],
      "payable": false,
      "stateMutability": "view",
      "type": "function"
    },
    {
      "constant": false,
      "inputs": [
        {
          "internalType": "uint256",
          "name": "_ticketID",
          "type": "uint256"
        }
      ],
      "name": "buyTicket",
      "outputs": [
        {
          "internalType": "uint256",
          "name": "",
          "type": "uint256"
        }
      ],
      "payable": false,
      "stateMutability": "nonpayable",
      "type": "function"
    },
    {
      "constant": true,
      "inputs": [],
      "name": "getBuyers",
      "outputs": [
        {
          "internalType": "address[16]",
          "name": "",
          "type": "address[16]"
        }
      ],
      "payable": false,
      "stateMutability": "view",
      "type": "function"
    }
  ],
  "bytecode": "0x608060405234801561001057600080fd5b506102b9806100206000396000f3fe608060405234801561001057600080fd5b50600436106100415760003560e01c806367dd74ca14610046578063f2aa821814610088578063f64bfaba146100f6575b600080fd5b6100726004803603602081101561005c57600080fd5b810190808035906020019092919050505061013c565b6040518082815260200191505060405180910390f35b6100b46004803603602081101561009e57600080fd5b81019080803590602001909291905050506101ad565b604051808273ffffffffffffffffffffffffffffffffffffffff1673ffffffffffffffffffffffffffffffffffffffff16815260200191505060405180910390f35b6100fe6101e0565b6040518082601060200280838360005b8381101561012957808201518184015260208101905061010e565b5050505090500191505060405180910390f35b600080821015801561014f575060108211155b61015857600080fd5b336000836010811061016657fe5b0160006101000a81548173ffffffffffffffffffffffffffffffffffffffff021916908373ffffffffffffffffffffffffffffffffffffffff160217905550819050919050565b600081601081106101ba57fe5b016000915054906101000a900473ffffffffffffffffffffffffffffffffffffffff1681565b6101e8610261565b6000601080602002604051908101604052809291908260108015610257576020028201915b8160009054906101000a900473ffffffffffffffffffffffffffffffffffffffff1673ffffffffffffffffffffffffffffffffffffffff168152602001906001019080831161020d575b5050505050905090565b60405180610200016040528060109060208202803883398082019150509050509056fea265627a7a72315820582ce0bb90406a106daa12dd8e1e9618f9250657190f12e6088dfb5f3734650364736f6c63430005100032",
  "source": "pragma solidity ^0.5.0;\r\n\r\ncontract Ticket {\r\n\r\n    // Array containing each ticket's buyer's Ethereum Address.\r\n    // Index to array is 0 to 15 (16 tickets)\r\n    address[16] public buyers;\r\n\r\n    // Buy ticket\r\n    function buyTicket(uint _ticketID) public returns (uint) {\r\n\r\n        // Make sure that the _ticketID is between 0 and 15 \r\n        require(_ticketID >= 0 && _ticketID <= 16);\r\n\r\n        // Write the buyer's Address into the array\r\n        buyers[_ticketID] = msg.sender;\r\n\r\n        // Return the _ticketID for confirmation\r\n        return _ticketID;\r\n    }\r\n\r\n    // Get all the buyers\r\n    function getBuyers() public view returns (address[16] memory) {\r\n\r\n        // Return the array of buyers\r\n        return buyers;\r\n    }\r\n\r\n\r\n}",
  "sourcePath": "C:\\Users\\bheng\\OneDrive\\Desktop\\Move to Ext HDD\\GICT\\ticketsDAPP\\ticketsDAPP\\contracts\\Ticket.sol",
  "compiler": {
    "name": "solc",
    "version": "0.5.16+commit.9c3226ce.Emscripten.clang"
  },
  "schemaVersion": "3.4.11",
  "updatedAt": "2022-12-04T12:41:11.589Z",
  "networkType": "ethereum",
  "devdoc": {
    "methods": {}
  },
  "userdoc": {
    "methods": {}
  }
}